:100000000C9434000C9451000C9451000C94510049
:100010000C9451000C9455010C9451000C94510017
:100020000C9451000C9451000C9451000C9451000C
:100030000C9451000C9451000C9451000C945100FC
:100040000C9451000C9451000C949B000C945100A2
:100050000C9451000C9451000C9451000C945100DC
:100060000C9451000C94510011241FBECFEFD8E026
:10007000DEBFCDBF11E0A0E0B1E0EEE0F3E002C0F2
:1000800005900D92A432B107D9F721E0A4E2B1E0C6
:1000900001C01D92A532B207E1F70E947E000C94C8
:1000A00085010C940000F999FECF92BD81BD60BD21
:1000B0008FB384608FBB8FB382608FBB0895F99933
:1000C000FECF92BD81BD8FB381608FBB80B5089597
:1000D000CF9380E090E00E945F00C82F81E090E025
:1000E0000E945F00C13019F49BB190629BB98130CE
:1000F00019F48BB180648BB9CF910895F8948AB1CB
:1001000081628AB98BB18F798BB98AB18B7F8AB9B9
:100110008BB184608BB9E8E6F0E0808184608083F5
:10012000EDE6F0E08081846080830E9468000E9498
:1001300069017894FFCF1F920F920FB60F9211248E
:100140002F933F934F935F936F937F938F939F93DF
:10015000AF93BF93CF93EF93FF93C091C600CA3084
:1001600009F48CC08C2F0E947E0180912401E091C3
:100170000001F0910101E80FF11DC083809124017D
:100180008F5F80932401A0910001B09101019C91A7
:10019000E0910801F0910901808198132DC011961A
:1001A0009C9111978181981327C012969C91129768
:1001B0008281981321C013969C918381981308C063
:1001C0008BB180628BB961E080E090E00E945300C7
:1001D000E0910001F09101019381E0910601F0911D
:1001E00007018381981308C08BB18F7D8BB960E0C4
:1001F00080E090E00E945300A0910001B0910101C5
:100200009C91E0910401F0910501808198133BC01D
:1002100011969C9111978181981335C012969C91EB
:100220001297828198132FC013969C918381981303
:1002300008C08BB180628BB961E081E090E00E94E0
:100240005300E0910001F09101019381E0910201DE
:10025000F09103018381981316C08BB18F7D8BB908
:1002600060E081E090E00E9453000DC0E091000149
:10027000F09101019DE291838F5F01C080E08430A5
:10028000A8F310922401FF91EF91CF91BF91AF910C
:100290009F918F917F916F915F914F913F912F919E
:1002A0000F900FBE0F901F9018951F920F920FB6D0
:1002B0000F9211248F939F9389B189B19BB180E2F2
:1002C00089278BB99F918F910F900FBE0F901F9030
:1002D00018958AB18E7F8AB98AB181608AB91092E5
:1002E000C00088E98093C10086E08093C20087E661
:1002F00090E09093C5008093C40008959091C00051
:0E03000095FFFCCF8093C6000895F894FFCFC0
:10030E000A010F01140119011E012D2D2D2D004C76
:10031E00323A30004C323A31004C313A30004C31E6
:04032E003A31000060
:00000001FF
