:020000020000FC
:0200000021C01D
:02000C004AC4E4
:1000380040C43F065B4F666D7D077F6F0FEF0DBFB6
:1000480008E00EBFF8940FEF0AB900270BB90EE3CA
:1000580007B9002708B900E304B90FE005B901E0C2
:10006800009368000FE000936B00112400270093B1
:100078000001009301010093020100930301009322
:100088000401009305010093060100930701009302
:1000980008010093090100930A0100930B010093E2
:1000A8000D0101E000930C01002700930F0101E00E
:1000B80000930E0109E00093100105E0009311017F
:1000C80003E00093120102E000931301002700935C
:1000D8001401009315010093160100931701009372
:1000E80018010093190103B100950F7000930601E0
:1000F80002E004BD03E005BD09EF07BD02E000937F
:100108006E0027D0789400911601003099F0109174
:100118001401103021F01127109314012D9800FDBF
:1001280037D001FD51D002FD55D003FD61D0002725
:100138000093160100910001003029F30027009375
:10014800000110911901103009F0DDCFEDD284D3F0
:10015800DACF0F930FB70F932C985F980091170180
:10016800003029F0013029F02C9A5F9A03C02C9AAC
:1001780001C05F9A0F910FBF0F9108950091170169
:100188000395033008F0002700931701E2DF089574
:10019800009119010395053008F000270093190113
:1001A800003021F011E01093180103C011271093BB
:1001B800180113E0109315011127109301011093F2
:1001C800020110930301089500911901003009F408
:1001D800D5DF089500911901003049F00091170109
:1001E800003009F413C0013009F49BC004C108951C
:1001F80000911901003049F000911701003009F40D
:1002080042C0013009F4C0C033C1089500911901FA
:10021800013039F0023079F0033019F1043051F12E
:10022800089500910B010395033008F0002700930F
:100238000B016BD0089500910B01023049F4009135
:100248000A010395043008F0002700930A01089575
:1002580000910A0103950A3008F0002700930A016B
:100268000895009109010395063008F000270093CE
:10027800090108950091080103950A3008F0002744
:1002880000930801089500911901013039F00230F6
:1002980081F0033031F1043071F1089500910B01C0
:1002A800003011F402E001C00A9500930B012DD033
:1002B800089500910B01023051F400910A010030B9
:1002C80011F403E001C00A9500930A010895009112
:1002D8000A01003011F409E001C00A9500930A01EF
:1002E800089500910901003011F405E001C00A9554
:1002F80000930901089500910801003011F409E004
:1003080001C00A9500930801089500910B0102307D
:1003180039F400910A01043018F003E000930A014F
:10032800089500911901013039F0023079F0033055
:10033800B9F00430F9F0089500910D0103950430E7
:1003480008F0002700930D01E1D0089500910C01F9
:1003580003950A3008F0002700930C01D7D00895C0
:1003680000910F010395023008F0002700930F0158
:10037800CDD0089500910E0103950A3008F00027AA
:1003880000930E01C3D0089500911901013039F08E
:10039800023081F00330C9F0043011F10895009162
:1003A8000D01003011F403E001C00A9500930D011E
:1003B800B0D0089500910C01003011F409E001C09B
:1003C8000A9500930C01A5D0089500910F01003003
:1003D80011F401E001C00A9500930F019AD0089525
:1003E80000910E01003011F409E001C00A95009354
:1003F8000E018FD0089500911901013039F00230B3
:1004080079F0033019F1043051F108950091130186
:100418000395033008F00027009313016BD008956B
:1004280000911301023049F4009112010395043040
:1004380008F0002700931201089500911201039516
:100448000A3008F000270093120108950091110165
:100458000395063008F000270093110108950091D4
:10046800100103950A3008F0002700931001089541
:1004780000911901013039F0023081F0033031F177
:10048800043071F1089500911301003011F402E075
:1004980001C00A95009313012DD00895009113010E
:1004A800023051F400911201003011F403E001C050
:1004B8000A9500931201089500911201003011F479
:1004C80009E001C00A9500931201089500911101F5
:1004D800003011F405E001C00A9500931101089558
:1004E80000911001003011F409E001C00A95009351
:1004F8001001089500911301023039F4009112019E
:10050800043018F003E000931201089505D030D0AC
:10051800089518D063D0089500910F0110910E012D
:10052800003019F0013021F006C0103021F0089594
:10053800133008F40895002711E000930F01109379
:100548000E01089500910F0110910E01003019F06D
:10055800013021F006C0103021F00895133008F45E
:10056800089501E012E000930F0110930E01089521
:1005780000910D0110910C01003011F4103039F187
:1005880078D00C3119F00E3161F016C010910D01C0
:100598001330E8F4123009F510910C011930B8F451
:1005A8001CC010910D01143090F41330B1F4109167
:1005B8000C01113060F411C010910D01143038F4A1
:1005C800133059F410910C01123008F406C01127A9
:1005D80010930D0111E010930C01089500910D0185
:1005E80010910C01003011F4103039F142D00C3167
:1005F80019F00E3161F016C010910D011330E8F4B6
:100608001230B1F510910C011930B8F431C01091C5
:100618000D01143090F4133059F510910C0111307C
:1006280060F426C010910D01143038F4133001F530
:1006380010910C01123008F41BC01BD00C3119F0BA
:100648000E3141F00EC012E010930D0118E0109326
:100658000C01089513E010930D01112710930C015C
:10066800089513E010930D0111E010930C01089503
:10067800089510910F01103031F010910E011130D2
:1006880081F00FE1089510910E01123041F01430FD
:1006980041F0163031F0193021F00FE108950CE1E6
:1006A80008950EE1089500911701003019F0013006
:1006B80021F006C000910B0135C000910D0132C038
:1006C800009113012FC000911701003019F001307B
:1006D80021F006C000910A0125C000910C0122C03A
:1006E800009112011FC000911701003019F001306C
:1006F80021F006C00091090115C000910F0112C038
:10070800009111010FC000911701003019F001305C
:1007180021F006C00091080105C000910E0102C039
:100728000091100150D108950091070103950C33F1
:1007380008F00027009307010030A1F50091080197
:1007480003950A3008F0002700930801003051F59E
:10075800009109010395063008F00027009309016C
:10076800003001F500910A0103950A3008F00027CE
:1007780000930A01003041F400910B010395033006
:1007880008F0002700930B0100910B01023051F48F
:1007980000910A01043031F4002700930B01009303
:1007A8000A0101D0089500910C0103950A3048F020
:1007B800002700930C0100910D01039500930D0192
:1007C80002C000930C0155DF0C3119F00E3159F0BD
:1007D80014C010910D011230F0F1C9F410910C0100
:1007E8001930A8F4089510910D011330A0F179F48F
:1007F80010910C01113058F4089510910D01133027
:1008080050F129F410910C01123008F408951127C1
:1008180010930D0111E010930C0110910E01139526
:100828001A3048F0112710930E0110910F011395FB
:1008380010930F0102C010930E0110910F01113097
:1008480051F410910E01133030F0112710930F015D
:1008580011E010930E010895009107010030E1F4B2
:1008680000910B01109113010117B1F400910A01D5
:1008780010911201011781F40091090110911101E1
:10088800011751F40091080110911001011721F48A
:1008980001E0009314012D9A08950F930FB70F9359
:1008A80003B100950F70009316010F910FBF0F91C0
:1008B80018950F931F931FB71F9342984398449816
:1008C800459800910301003011F0419A01C0419808
:1008D80000911501003029F0013081F00230D9F083
:1008E80027C0E1DE10911901113021F410910301A4
:1008F800113011F0459A28C060D026C0E4DE10916E
:100908001901123021F410910301113011F0449AA9
:100918001BC053D019C0E7DE10911901133021F420
:1009280010910301113011F0439A0EC046D00CC04B
:10093800EADE10911901143021F4109103011130ED
:1009480011F0429A01C039D0009115010395043085
:1009580008F0002700931501009101010395009309
:10096800010129F40091020103950093020100910D
:1009780002010130E9F400910101043FC9F40027A4
:1009880000930101009302010091030111E0012786
:1009980000930301009104010395023038F0002709
:1009A8000093040101E00093000102C000930401D8
:1009B8001F911FBF1F910F9118950F930BB10078CE
:1009C8000BB90F910895EF93FF931F93F0E0EAE3BB
:1009D800E00FF11D04911BB11078012B0BB91F9189
:0609E800FF91EF9108955C
:00000001FF
