S00F00005072654C6162362E73726563A9
S11300000C9434000C943E000C943E000C943E007E
S11300100C943E000C943E000C943E000C943E0064
S11300200C943E000C943E000C943E000C943E0054
S11300300C943E000C943E000C943E000C943E0044
S11300400C943E000C943E000C943E000C943E0034
S11300500C943E000C943E000C943E000C943E0024
S11300600C943E000C943E0011241FBECFEFD8E048
S1130070DEBFCDBF0E945A000C9484000C94000093
S11300801092C50087E68093C40088E18093C10084
S113009086E08093C20008959091C00095FFFCCF44
S11300A08093C60008958091C0008823E4F780916E
S11300B0C6000895CF93DF9300D000D0CDB7DEB74C
S11300C00E9440008FEF84B984E40E944C0019829E
S11300D01A821B821C820BC089819A81AB81BC81EC
S11300E00196A11DB11D89839A83AB83BC83898149
S11300F09A81AB81BC818032914AA740B10564F3F7
S10F01000E94530085B9E0CFF894FFCFB3
S9030000FC
