:100000000C9434000C943E000C943E000C943E0082
:100010000C943E000C943E000C943E000C943E0068
:100020000C943E000C943E000C943E000C943E0058
:100030000C943E000C943E000C943E000C943E0048
:100040000C943E000C943E000C9479000C943E00FD
:100050000C943E000C943E000C943E000C943E0028
:100060000C943E000C943E0011241FBECFEFD8E04C
:10007000DEBFCDBF0E945C000C94B2000C94000067
:100080008AB18E7F8AB98AB181608AB91092C00024
:1000900088E98093C10086E08093C20087E690E003
:1000A0009093C5008093C40008959091C00095FF7F
:1000B000FCCF8093C6000895F89484B1806284B91F
:1000C0008AB180628AB985B18F7D85B98BB18F7D08
:1000D0008BB90E944000789488E40E9455008FE616
:1000E0000E9455008CE60E94550081E60E94550052
:1000F000FFCF1F920F920FB60F9211242F933F93B1
:100100004F935F936F937F938F939F93AF93BF931F
:10011000CF93EF93FF93C091C6008C2F0E945500A0
:10012000C13631F485B1806285B98BB180628BB9FB
:10013000C23631F485B18F7D85B98BB18F7D8BB996
:10014000FF91EF91CF91BF91AF919F918F917F914F
:100150006F915F914F913F912F910F900FBE0F9034
:080160001F901895F894FFCFE1
:00000001FF
