:020000020000FC
:040000000C941C0040
:040014000C947400D4
:100034000C9494000FEF0DBF08E00EBFF89400E895
:100044000093610004E0209A219A28982998389A0C
:10005400399A3A9A3B9A40984198429843985298D0
:1000640053985A9A5B9A0E9467004427552766273B
:1000740001E000936F0004E0009368000CE000933B
:100084006D00789458B945B9403039F0413059F091
:10009400423079F0433099F0F5CF613019F453953B
:1000A4005F706627EFCF613019F45A955F70662749
:1000B400E9CF613019F453955F706627E3CF61305F
:1000C40019F45A955F706627DDCF00E00093800035
:1000D40003E00093810002EC0093850007EF009396
:1000E400840008950F930FB70F934A9917C043954F
:1000F400443009F44427403039F0413049F042306B
:1001040059F0433051F00AC04B9A41F061E006C007
:100114004B9A21F061E002C001C000C00F910FBFF3
:100124000F9118950F930FB70F9302EC009385006E
:1001340007EF00938400403029F0413019F05395C3
:100144005F7061E00F910FBF0F9118954FE05FE072
:0A0154005A95F1F74A95D9F708957E
:00000001FF
