:100000000C9434000C9449000C9449000C94490061
:100010000C9449000C9449000C9449000C9449003C
:100020000C9449000C9449000C9449000C9449002C
:100030000C9449000C9449000C9449000C9449001C
:100040000C9449000C9449000C9449000C9449000C
:100050000C9449000C9449000C9449000C944900FC
:100060000C9449000C94490011241FBECFEFD8E036
:10007000DEBFCDBF11E0A0E0B1E0EAE3F2E002C0F4
:1000800005900D92A031B107D9F70E94F4000C94AD
:100090001B010C94000023B130E002C03595279578
:1000A0008A95E2F720FD02C081E0089580E008957E
:1000B000ECE7F0E010828081806480838081806240
:1000C000808380818660808310927B00EAE7F0E085
:1000D000108280818068808380818760808308951A
:1000E000EAE7F0E080818064808380917A0086FD79
:1000F000FCCF80917900089588B1806388B9089514
:100100001092C1008FEF8AB91BB884B18C7F84B97B
:1001100085B1836085B984B18C6384B985B1837CF2
:1001200085B987B18E6387B988B1817F88B987B176
:10013000816087B90E947C000895E82FF0E0E050CC
:10014000FF4F808195B1937C95B998B1917F98B913
:1001500080FF03C095B1946095B981FF03C095B14C
:10016000986095B982FF03C095B1906195B983FFFE
:1001700003C095B1906295B984FF03C098B19260B5
:1001800098B985FF03C098B1946098B986FF03C001
:1001900088B1886088B90895CF93DF93D82FD2951E
:1001A000DF70C82FCF700E947C008D2F0E949D00B1
:1001B00088B18F7E88B98FED9EE20197F1F700C07C
:1001C00000000E947C008C2F0E949D0088B18F7DD2
:1001D00088B98FED9EE20197F1F700C000000E9400
:1001E0007C00DF91CF9108950E9480000E9458000A
:1001F0001BB8C0E080E00E944B00882321F0CF5F55
:10020000CBB9189BFECF81E00E944B00882321F0E0
:10021000C150CBB9199BFECF0E947000D82F0E940D
:10022000CC00DC1720F088B1816088B9E3CF88B1B9
:0A0230008E7F88B9DFCFF894FFCF6E
:10023A003F065B4F666D7D077F6F777C395E79710C
:00000001FF
