:020000020000FC
:1000000008C03F065B4F666D7D077F6F777C395E6A
:1000100079710FEF0DBF08E00EBFF89400E8009370
:10002000610004E00093610000E00093C1000FE371
:1000300007B9002708B9209A2898299A2A9A3327BD
:10004000662711D0199903C01AD007D00CD01A997D
:10005000F9CF1CD005D007D0F5CF33953F70089568
:100060003A953F700895F0E0E2E0E30FF61F249127
:10007000422F4F7348B9289826FD289A08950DD02D
:1000800019990895199BFECF08D0089506D01A99A2
:1000900008951A9BFECF01D0089540E55AEF5A9576
:0800A000F1F74A95D9F7089524
:00000001FF
