S01000005072654C61625F352E737265634A
S11300000C9440000C9452000C9452000C94520036
S11300100C9452000C9452000C9452000C94520014
S11300200C9452000C9452000C9452000C94520004
S11300300C9452000C9452000C9452000C945200F4
S11300400C9452000C9452000C9452000C945200E4
S11300500C9452000C948C000C9452000C9452009A
S11300600C9452000C945200C400CA00D000D60074
S1130070E100EC00F700FD00080113011E01290155
S113008011241FBECFEFD8E0DEBFCDBF21E0A0E03A
S1130090B1E001C01D92A130B207E1F70E946000F7
S11300A00C94AC010C940000ECE7F0E01082808129
S11300B086668083EAE7F0E010828BEC8083089503
S11300C0F8940E94540048E050E06AE080E00E9406
S11300D0A5008FE39CE9909387008093860088EBCA
S11300E09BE090938900809388007894209100018C
S11300F030E0A8E6B0E10E949D012FEF30E040E03F
S113010050E00E947501CA01B901605E7C4F8F4FB7
S11301109F4F0E947001EACF1F920F920FB60F9269
S113012011248F93EF93FF938091790080930001C2
S1130130EAE7F0E0808180648083FF91EF918F9102
S11301400F900FBE0F901F90189594B1926094B9C0
S11301501092800010928100882331F0A0E8B0E072
S11301608C91806C8C9305C0A0E8B0E08C91806881
S11301708C93862F90E08C30910508F075C0FC01BB
S1130180EC5CFF4F0C949701E0E8F0E08081816023
S113019080836FC0E0E8F0E080818260808369C082
S11301A0E0E8F0E080818360808363C0E0E8F0E011
S11301B0808181608083E1E8F0E0808188608083D1
S11301C058C0E0E8F0E0808182608083E1E8F0E0FC
S11301D08081886080834DC0E0E8F0E080818360A6
S11301E08083E1E8F0E080818860808342C0E1E8B8
S11301F0F0E08081806180833CC0E0E8F0E08081B1
S113020081608083E1E8F0E080818061808331C097
S1130210E0E8F0E0808183608083E1E8F0E08081C1
S11302208061808326C0E0E8F0E080818360808381
S1130230E1E8F0E08081886180831BC0E0E8F0E0C1
S1130240808182608083E1E8F0E08081886180833E
S113025010C0E0E8F0E0808183608083E1E8F0E0B2
S113026080818861808305C0E0E8F0E0808181605E
S1130270808340345105E1F038F44130510561F098
S11302804830510579F026C0411581E05807B1F096
S113029041155440C9F01EC0E1E8F0E0808181605E
S11302A080830895E1E8F0E080818260808308958E
S11302B0E1E8F0E08081836080830895E1E8F0E084
S11302C08081846080830895E1E8F0E08081856026
S11302D080830895E1E8F0E080818160808308955F
S11302E070938900609388000895A1E21A2EAA1BD6
S11302F0BB1BFD010DC0AA1FBB1FEE1FFF1FA217D2
S1130300B307E407F50720F0A21BB30BE40BF50BCE
S1130310661F771F881F991F1A9469F76095709557
S1130320809590959B01AC01BD01CF010895EE0F1E
S1130330FF1F0590F491E02D0994A29FB001B39F93
S1130340C001A39F700D811D1124911DB29F700DDA
S10F0350811D1124911D0895F894FFCF25
S9030000FC
