:020000020000FC
:1000000000C00FEF0DBF08E00EBF112400273327FB
:1000100066271CEF1AB95A985B985C985D98259AE8
:100020002D9838983998409A419A10E014BD15E0FF
:1000300015BD00C007D0552319F003950F7019D0D6
:1000400021D0F8CF5527662339F446E015EE16BDCA
:1000500011E015BB61E0089525B320FF089511E07C
:1000600015BB112716BD4A9519F4662751E008956E
:100070000895102F1F70110F110F2BB1237C212B0E
:100080002BB90895102F1F70232F121711F42D9ADA
:0600900008952D9808956B
:00000001FF
