:020000020000FC
:0200000008C036
:1000100053C00FEF0DBF08E00EBF11240FE004B96D
:10002000112715B938983998409A419A00270093BA
:1000300000010093010100E004BD03E005BD01E003
:1000400005BB03E000936C0002E00BBB02E00093F1
:100050006800789400910001002381F0002700934C
:10006000000113951F7015B9309BFECF1CD0309B3B
:10007000FBCF02E00BBB02E000936800009101019E
:10008000002341F30027009301011A951F7015B951
:10009000319BFECF08D0319BFBCF02E00BBB02E0CF
:1000A00000936800D7CF44E105B300FFFDCF01E026
:1000B00005BB4A95C9F708950F930FB70F93002713
:1000C00000936800309904C001E00093000105C06E
:1000D000319903C001E0009301010F910FBF0F910F
:0200E000189571
:00000001FF
