:100000000C9434000C9451000C9451000C94510049
:100010000C9451000C9451000C9451000C94A403C6
:100020000C9451000C9451000C9451000C9451000C
:100030000C9451000C9451000C9451000C945100FC
:100040000C9451000C9451000C9451000C945100EC
:100050000C9451000C9451000C9451000C945100DC
:100060000C9451000C94510011241FBECFEFD8E026
:10007000DEBFCDBF11E0A0E0B1E0ECEBFEE002C0DE
:1000800005900D92A03EB107D9F721E0A0EEB1E0B6
:1000900001C01D92A13FB207E1F70E94B4020C9487
:1000A0005C070C940000ACE7B0E01C92EAE7F0E0DB
:1000B00010828C9180648C938081806880838081A1
:1000C0008760808308958770ECE7F0E09081907FEF
:1000D000892B8083EAE7F0E08081806480838091CF
:1000E0007A0086FDFCCF8091780090917900089588
:1000F0009C01A4EBB0E00E943D042FEF33E040E010
:1001000050E00E941B04822F0895F999FECF92BD02
:1001100081BD60BD8FB384608FBB8FB382608FBBA6
:10012000F999FECF0895F999FECF92BD81BD8FB3A5
:1001300081608FBB80B508958AB18B7F8AB98AB1FF
:100140008F778AB98BB184608BB98BB180688BB99A
:10015000089529B181E0922F947022FF80E09111DF
:100160001FC0209101012130D9F42091E701211114
:1001700017C02FEF36E741E0215030404040E1F713
:1001800000C000004A990CC02091EA012F5F209323
:10019000EA01233010F01092EA0121E02093E701F8
:1001A00091111092E7018093010108958AB180674F
:1001B0008AB98BB18F788BB908958BB18F788BB951
:1001C0008091EA01811104C08BB180618BB90895DF
:1001D000813021F48BB180628BB90895823019F49B
:1001E0008BB180648BB90895CF93DF93C9B1DC2FB5
:1001F000DD1FDD27DD1FCC230CF453C080910001EF
:10020000813009F04EC08091E60181114AC02FEF84
:1002100086E791E0215080409040E1F700C0000067
:100220004F993FC08091E90190E06091EF01880F04
:10023000991F880F991F0E9485008091E90190E025
:10024000880F991F880F991F6091EE0101960E94F7
:1002500085008091E90190E0880F991F880F991F10
:100260006091ED0102960E9485008091E90190E085
:10027000880F991F880F991F6091F00103960E94C3
:10028000850087E091E00E9408048091E9018F5F7A
:100290008093E901843010F01092E90181E08093AD
:1002A000E601CC2314F41092E601D0930001DF9113
:1002B000CF910895CF93DF93C091E801CC0FCC0F7D
:1002C000D0E0CE010E9493008093EF01CE01019611
:1002D0000E9493008093EE01CE0102960E9493004B
:1002E0008093ED01CE0103960E9493008093F0016C
:1002F0008091EF010E9429038091EE010E9430035A
:100300008091ED010E946F038091F0010E947603BD
:10031000DF91CF9108958BEB91E00E94080489E171
:1003200091E00E94080480E391E00E9408048AE3BF
:1003300091E00E9408048AE491E00E9408048AE5A2
:1003400091E00E9408048AE691E00E9408048BEB89
:1003500091E00E9408040895EF92FF920F931F937B
:10036000CF93DF93CDB7DEB72A970FB6F894DEBFF1
:100370000FBECDBF8BEB91E00E9408048AE791E0AD
:100380000E9408048091EF011F928F930F2EFEE8C8
:10039000EF2EF1E0FF2EF02DFF92EF928E010F5F16
:1003A0001F4F1F930F930E94720481E991E00E94F6
:1003B0000804C8010E9408048BEB91E00E94080425
:1003C0008091EE011F928F93FF92EF921F930F93F4
:1003D0000E9472048BE991E00E940804C8010E9407
:1003E00008048BEB91E00E9408048091ED011F92BC
:1003F0008F93FF92EF921F930F930E94720485EAEE
:1004000091E00E940804C8010E9408048BEB91E06F
:100410000E9408048091F0011F928F93FF92EF9247
:100420001F930F930E9472048FEA91E00E940804C8
:10043000C8010E94080489EB91E00E9408040FB6ED
:10044000F894DEBF0FBECDBF2A960FB6F894DEBF7C
:100450000FBECDBFDF91CF911F910F91FF90EF9015
:100460000895CF938091C00088239CF5C091C60069
:10047000CD3079F1CA3069F18EEB91E00E94080429
:100480008C2F0E9401048BEB91E00E940804C13381
:1004900019F41092E80119C0C23321F481E080936D
:1004A000E80113C0C33321F482E08093E8010DC05A
:1004B000C43321F483E08093E80107C08EEC91E01F
:1004C0000E9408040E94AC0104C00E945A010E94CC
:1004D000AC01CF910895CF938091C00088230CF098
:1004E00041C0C091C6008C2F0E940104CA3051F552
:1004F000E091E501F0E0E052FE4F108281EE91E0E4
:100500000E944C049091E001913429F48093EF0112
:100510000E94290314C0923429F48093EE010E94B2
:1005200030030DC0933429F48093ED010E946F03D2
:1005300006C0943421F48093F0010E947603109257
:10054000E50110C0CD3071F08091E501E82FF0E0B9
:10055000E052FE4FC0838F5F8093E501853010F03D
:100560001092E501CF910895F8940E9437030E94FC
:100570007D030E94EC030E9453000E949C000E9495
:10058000D60078940E94A9008091EA01909102011E
:10059000891741F0813011F40E948B018091EA01AA
:1005A000809302018091EA01811131C00E94DD0037
:1005B00080E00E9463000E9478008093EF0181E058
:1005C0000E9463000E9478008093EE0182E00E9406
:1005D00063000E9478008093ED0183E00E94630035
:1005E0000E9478008093F0018091EF010E9429031E
:1005F0008091EE010E9430038091ED010E946F0313
:100600008091F0010E9476030E94F400BBCF8130FC
:1006100029F40E94DD000E943102B4CF823009F03B
:10062000B1CF0E94DD000E946B02ACCF853B08F089
:1006300084EB282F30E0A0EDB7E00E943D0424EBCE
:1006400030E040E050E00E941B04C9018053984F05
:1006500008950E941603909389008093880008955E
:100660000E94160390938B0080938A00089584B1B2
:10067000826084B984B1846084B9A0E8B0E01C923F
:10068000E1E8F0E010828C91806A8C938C9182601A
:100690008C938081886180838081826080838FE3F6
:1006A0009CE990938700809386008AE50E94290345
:1006B0008AE50E9430030895853B08F084EB282FDB
:1006C00030E0A4E6B0E00E943D0424EB30E040E0DE
:1006D00050E00E941B04C9018C599F4F08950E944D
:1006E0005C03909306018093050108950E945C03CA
:1006F0009093040180930301089584B1886084B9C4
:100700008AB188608AB985B1877F85B98BB1877FC7
:100710008BB9A0EBB0E01C92E1EBF0E010828C9181
:1007200082608C9380818260808383E18093B300B8
:10073000E0E7F0E08081826080838AE50E946F03B9
:100740008AE50E94760308951F920F920FB60F92CA
:1007500011242F933F938F939F938091EB0190915E
:10076000EC0101969093EC018093EB018091EB01F9
:100770009091EC01803D974050F01092EC01109266
:10078000EB0185B1886085B98BB188608BB9209108
:10079000EB013091EC018091050190910601281741
:1007A000390719F485B1877F85B92091EB01309124
:1007B000EC0180910301909104012817390719F485
:1007C0008BB1877F8BB99F918F913F912F910F9024
:1007D0000FBE0F901F9018958AB18E7F8AB98AB18B
:1007E00082608AB91092C00088E18093C10086E0DF
:1007F0008093C20087E690E09093C5008093C40088
:1008000008959091C00095FFFCCF8093C600089595
:100810000F931F93CF938C01C0E003C00E9401048B
:10082000CF5FF801EC0FF11D80818111F7CFCF91DF
:100830001F910F910895A1E21A2EAA1BBB1BFD0167
:100840000DC0AA1FBB1FEE1FFF1FA217B307E407AF
:10085000F50720F0A21BB30BE40BF50B661F771F07
:10086000881F991F1A9469F76095709580959095E7
:100870009B01AC01BD01CF010895A29FB001B39FC0
:10088000C001A39F700D811D1124911DB29F700D99
:10089000811D1124911D0895FC0188279927E89452
:1008A00021912032E9F3293010F02E30C8F32B3299
:1008B00041F02D3239F4689404C00E946A04820F1A
:1008C000911D219120532A30C0F31EF490958195FB
:1008D0009F4F08957AE0979F902D879F802D910DCF
:1008E00011240895AEE0B0E0E8E7F4E00C9433079B
:1008F0000D891E8986E08C831A8309838FEF9FE719
:100900009E838D83AE01475E5F4F6F89788DCE01E8
:1009100001960E949404EF81F885E00FF11F108288
:100920002E96E4E00C944F07ABE0B0E0EAE9F4E087
:100930000C9425076C017B018A01FC011782168249
:10094000838181FFCCC1CE0101963C01F6019381E8
:10095000F70193FD859193FF81917F01882309F42D
:10096000BAC1853239F493FD859193FF81917F015E
:10097000853229F4B60190E00E948B06E7CF912CD6
:10098000212C312CFFE1F315D8F08B3279F038F4BB
:10099000803279F08332A1F4232D20611DC08D3285
:1009A00061F0803369F4232D216016C0832D8260AD
:1009B000382EE32DE4603E2E2AC0F32DF8601DC0D2
:1009C00037FC2DC020ED280F2A3040F08E32B9F4CC
:1009D00036FC81C1232D2064322E19C036FE06C09C
:1009E0008AE0989E200D1124922E11C0EAE02E9EDE
:1009F000200D1124222EF32DF0623F2E08C08C36DC
:100A000021F4832D8068382E02C0883641F4F70126
:100A100093FD859193FF81917F018111B3CF982F31
:100A20009F7D9554933028F40C5F1F4F9FE399836B
:100A30000DC0833631F0833771F0833509F059C02A
:100A400021C0F801808189830E5F1F4F8824839421
:100A5000912C530113C02801F2E04F0E511CF801F4
:100A6000A080B18036FE03C0692D70E002C06FEF38
:100A70007FEFC5010E9480064C018201F32DFF77B4
:100A80003F2E16C0280122E0420E511CF801A08022
:100A9000B18036FE03C0692D70E002C06FEF7FEFBA
:100AA000C5010E9475064C01F32DF0683F2E8201AE
:100AB00033FC1BC0822D90E088169906B0F4B60175
:100AC00080E290E00E948B062A94F4CFF50137FC77
:100AD000859137FE81915F01B60190E00E948B06FF
:100AE00021102A9421E0821A91088114910471F74F
:100AF000E8C0843611F0893641F5F80137FE07C0A9
:100B000060817181828193810C5F1F4F08C0608179
:100B10007181072E000C880B990B0E5F1F4FF32D70
:100B2000FF763F2E97FF09C090958095709561954F
:100B30007F4F8F4F9F4FF0683F2E2AE030E0A30198
:100B40000E94C706882E861845C0853731F4232DAC
:100B50002F7EB22E2AE030E025C0932D997FB92E4A
:100B60008F36C1F018F4883579F0B5C0803719F0A8
:100B7000883721F0B0C0E92FE061BE2EB4FE0DC071
:100B8000FB2DF460BF2E09C034FE0AC0292F266059
:100B9000B22E06C028E030E005C020E130E002C0FF
:100BA00020E132E0F801B7FE07C0608171818281E7
:100BB00093810C5F1F4F06C06081718180E090E0DF
:100BC0000E5F1F4FA3010E94C706882E8618FB2DBB
:100BD000FF773F2E36FE0DC0232D2E7FA22E8914C7
:100BE00058F434FE0BC032FC09C0832D8E7EA82E33
:100BF00005C0B82CA32C03C0B82C01C0B92CA4FE8E
:100C00000FC0FE01E80DF11D8081803321F49A2D83
:100C1000997EA92E09C0A2FE06C0B394B39404C065
:100C20008A2D867809F0B394A3FC11C0A0FE06C0FB
:100C3000B21488F4280C922C9B180EC0B21460F4E5
:100C4000B60180E290E00E948B06B394F7CFB21415
:100C500018F42B1802C0982C212CA4FE10C0B60149
:100C600080E390E00E948B06A2FE17C0A1FC03C0A7
:100C700088E790E002C088E590E0B6010CC08A2DBC
:100C8000867859F0A1FE02C08BE201C080E2A7FC89
:100C90008DE2B60190E00E948B06891438F4B6010B
:100CA00080E390E00E948B069A94F7CF8A94F30138
:100CB000E80DF11D8081B60190E00E948B06811045
:100CC000F5CF222009F442CEB60180E290E00E94E6
:100CD0008B062A94F6CFF6018681978102C08FEFAA
:100CE0009FEF2B96E2E10C944107FC0105906150C7
:100CF00070400110D8F7809590958E0F9F1F089532
:100D0000FC016150704001900110D8F780959095DA
:100D10008E0F9F1F08950F931F93CF93DF93FB01B7
:100D2000238121FD03C08FEF9FEF2CC022FF16C04F
:100D300046815781248135814217530744F4A081AD
:100D4000B1819D012F5F3F4F318320838C9326819A
:100D500037812F5F3F4F3783268314C08B01EC010F
:100D6000FB010084F185E02D0995892BE1F6D8017E
:100D700016968D919C911797019617969C938E933A
:100D80001697CE01DF91CF911F910F910895FA012F
:100D9000AA27283051F1203181F1E8946F936E7FBA
:100DA0006E5F7F4F8F4F9F4FAF4FB1E03ED0B4E0AB
:100DB0003CD0670F781F891F9A1FA11D680F791FEC
:100DC0008A1F911DA11D6A0F711D811D911DA11DFD
:100DD00020D009F468943F912AE0269F112430190D
:100DE000305D3193DEF6CF010895462F4770405DA8
:100DF0004193B3E00FD0C9F7F6CF462F4F70405D57
:100E00004A3318F0495D31FD4052419302D0A9F7B1
:100E1000EACFB4E0A6959795879577956795BA95AB
:100E2000C9F700976105710508959B01AC010A2E71
:100E300006945795479537952795BA95C9F7620F48
:100E4000731F841F951FA01D08952F923F924F92EC
:100E50005F926F927F928F929F92AF92BF92CF924A
:100E6000DF92EF92FF920F931F93CF93DF93CDB753
:100E7000DEB7CA1BDB0B0FB6F894DEBF0FBECDBFCB
:100E800009942A88398848885F846E847D848C849C
:100E90009B84AA84B984C884DF80EE80FD800C81A5
:100EA0001B81AA81B981CE0FD11D0FB6F894DEBF88
:0C0EB0000FBECDBFED010895F894FFCFF8
:100EBC000101FF960096005072657365742067758A
:100ECC0061726461646F0D0A003D3D3D20434F4EDD
:100EDC0054524F4C2055415254203D3D3D0D0A007B
:100EEC00456E766961723A0D0A0031202D3E205014
:100EFC00726573657420310D0A0032202D3E20502E
:100F0C00726573657420320D0A0033202D3E20501B
:100F1C00726573657420330D0A0034202D3E205009
:100F2C00726573657420340D0A00416E67756C6FC1
:100F3C00732061637475616C65733A0D0A002564E6
:100F4C0000536572766F20313A2000536572766FCC
:100F5C0020323A2000536572766F20333A200053CA
:100F6C006572766F20343A20000D0A0D0A00446138
:100F7C00746F20726563696269646F3A2000507205
:100F8C006573657420696E76616C69646F0D0A0017
:00000001FF
