S00D00004C61625F352E7372656374
S11300000C9434000C943E000C943E000C943E007E
S11300100C943E000C943E000C943E000C943E0064
S11300200C943E000C943E000C943E000C943E0054
S11300300C943E000C943E000C943E000C943E0044
S11300400C943E000C943E000C943E000C943E0034
S11300500C943E000C943E000C943E000C943E0024
S11300600C943E000C943E0011241FBECFEFD8E048
S1130070DEBFCDBF0E946F000C9444010C940000BD
S1130080ACE7B0E01C92EAE7F0E010828C91806467
S11300908C9380818768808308958770ECE7F0E013
S11300A09081907F892B8083EAE7F0E080818064EF
S11300B0808380917A0086FDFCCF809178009091B6
S11300C0790008959C01A4EBB0E00E9435012FEF64
S11300D033E040E050E00E941301822F08950E9413
S11300E040000E94B2000E94000184E00E944D0082
S11300F00E9462000E94AB002FEF89EF90E0215034
S113010080409040E1F700C0000085E00E944D006F
S11301100E9462000E94FB002FEF89EF90E02150C3
S113012080409040E1F700C00000DFCF853B08F03D
S113013084EB282F30E0A0EDB7E00E94350124EBDA
S113014030E040E050E00E941301C9018C509E4F02
S1130150880F991F08950E949600909389008093B8
S11301608800089584B1826084B9A0E8B0E01C924C
S1130170E1E8F0E010828C9182688C9380818A613E
S113018080838FE39CE990938700809386008AE5BF
S11301900E94AB0008950F931F93853B08F084EBF6
S11301A0082F10E020E030E0D901C801880F991F22
S11301B0AA1FBB1F880F991FAA1FBB1F880F991F57
S11301C0AA1FBB1F880F991FAA1FBB1F880F991F47
S11301D0AA1FBB1FBC01CD01601B710B820B930BCB
S11301E024EB30E040E050E00E94130188E0820FED
S11301F01F910F9108950E94CB008093B40008953D
S11302008AB188608AB9A0EBB0E01C92E1EBF0E01F
S113021010828C9183628C938081876080838AE5CD
S11302200E94FB000895A1E21A2EAA1BBB1BFD012C
S11302300DC0AA1FBB1FEE1FFF1FA217B307E407C1
S1130240F50720F0A21BB30BE40BF50B661F771F19
S1130250881F991F1A9469F76095709580959095F9
S11302609B01AC01BD01CF010895A29FB001B39FD2
S1130270C001A39F700D811D1124911DB29F700DAB
S10F0280811D1124911D0895F894FFCFF6
S9030000FC
