:020000020000FC
:020000001CC022
:100038002FC00FEF0DBF08E00EBF0BC000E000930C
:10004800C1003F065B4F666D7D077F6F777C395E29
:10005800797111240EEF0AB90EEF0BB9389A409A4C
:10006800399A4198002700930001009301010093F9
:10007800020102E004BD05E005BD0BE907BD00274C
:1000880006BD02E005BB02E000936E007894FFCF46
:100098000F931F931FB71F93009100010395043618
:1000A800D0F00027009300010091010103950A3068
:1000B80078F00027009301010091020103950630B2
:1000C80020F000270093020108C00093020105C038
:1000D8000093010102C000930001409A41980091E9
:1000E800010113D00DD01BD04098419A0091020114
:1000F8000CD006D014D01F911FBF1F910F911895D7
:10010800000F00950E7F0BB90895EF93FF93F0E071
:10011800EAE4E00FF11D0491FF91EF9108952EE1BB
:0C01280038EC3A95F1F72A95D9F70895C4
:00000001FF
