S01000005072656C61625F342E737265632B
S11300000C9434000C943E000C943E000C943E007E
S11300100C943E000C943E000C943E000C943E0064
S11300200C943E000C943E000C943E000C943E0054
S11300300C943E000C943E000C943E000C943E0044
S11300400C943E000C943E000C943E000C943E0034
S11300500C943E000C943E000C943E000C943E0024
S11300600C943E000C943E0011241FBECFEFD8E048
S1130070DEBFCDBF0E9466000C947D000C9400008E
S11300801092C1008FEF8AB91BB884B18C7F84B9F8
S113009085B1836085B9089523B130E0082E02C08C
S11300A0359527950A94E2F720FD0CC023B130E082
S11300B0A90102C0559547958A95E2F740FF04C00F
S11300C080E0089580E0089581E008950E94400052
S11300D01BB8C0E080E00E944C00882321F0CF5F71
S11300E0CBB9189BFECF81E00E944C00882391F38A
S11100F0C150CBB9199BFECFEDCFF894FFCFD2
S9030000FC
