S01500004C61626F7261746F72696F5F362E73726563FC
S11300000C9434000C9449000C9449000C9449005D
S11300100C9449000C9449000C9449000C94490038
S11300200C9449000C9449000C9449000C94490028
S11300300C9449000C9449000C9449000C94490018
S11300400C9449000C9449000C9449000C94490008
S11300500C9449000C9449000C9449000C944900F8
S11300600C9449000C94490011241FBECFEFD8E032
S1130070DEBFCDBF11E0A0E0B1E0E0E9F2E002C0F4
S113008005900D92A03BB107D9F70E94DF000C94B4
S113009046010C9400001092C50087E68093C400CA
S11300A088E18093C10086E08093C2000895909116
S11300B0C00095FFFCCF8093C60008958091C000D6
S11300C08823E4F78091C6000895CF93DF93EC0171
S11300D003C00E945700219688818111FACFDF91D5
S11300E0CF91089582E480937C0087E880937A001E
S11300F00895EAE7F0E080818064808380917A004B
S113010086FDFCCF809178009091790008951F932B
S1130110CF93DF9300D000D000D0CDB7DEB7AC01D1
S1130120892B91F580E30E9457003FC09A01ADEC02
S1130130BCEC0E9437019695879596958795969580
S113014087959C01220F331F880F991F880F991FD1
S1130150880F991F820F931F9A01281B390BC9011D
S1130160E1E0F0E0EC0FFD1FE10FF11D805D808305
S11301709A010E943701AC015695479556954795CB
S1130180569547951F5F01C010E04115510571F662
S11301900AC01150E1E0F0E0EC0FFD1FE10FF11D8A
S11301A080810E9457001111F4CF26960FB6F8945F
S11301B0DEBF0FBECDBFDF91CF911F9108950E9486
S11301C04B000E9472008FE384B983E087B980E01A
S11301D091E00E94650087E191E00E9465008FE252
S11301E091E00E94650081E491E00E9465000E9414
S11301F05E00C82F0E94570084E191E00E946500D0
S1130200C13379F40E947900EC0189E591E00E9400
S11302106500CE010E94870084E191E00E946500A0
S11302201CC0C233B1F483E791E00E9465000E94D0
S11302305E00C82F0E94570084E191E00E9465008F
S11302408C2F8F7385B9C295C695C695C370C8B9EE
S113025004C089E891E00E9465002FEF89E698E1E7
S1130260215080409040E1F700C00000B0CFA29F31
S1130270B001B39FC001A39F700D811D1124911D76
S1130280B29F700D811D1124911D0895F894FFCF24
S11302900D0A2D2D2D204D454E55204C61622036E2
S11302A0202D2D2D0D0A00312E204C656572205015
S11302B06F74656E63696F6D6574726F0D0A0032D9
S11302C02E20456E766961722041534349490D0AD7
S11302D00053656C656363696F6E6520756E61209C
S11302E06F7063696F6E3A200056616C6F722064A0
S11302F0656C20706F74656E63696F6D6574726F81
S11303003A2000496E677265736520756E206361DB
S11303107261637465723A20004F7063696F6E2076
S1130320696E76616C69646120736F6C6F2070759F
S1130330656465207365722031206F20320D0A00D8
S9030000FC
