:020000020000FC
:1000000008C03F065B4F666D7D077F6F777C395E6A
:1000100079710FEF0DBF08E00EBFF89400E8009370
:10002000610004E00093610000E00093C1000FE371
:1000300007B9002708B9209A2898299A2A9A0CE724
:100040000AB900270BB9332777278827662734D0CA
:100050003FD05E9802E004BD05E005BD01E607BDA6
:10006000002706BD02E005BB78940BD0199903C0A8
:1000700038D01CD021D01A99F8CF3AD01AD01CD041
:10008000F4CF05B301FF089502E005BB83958A30E4
:1000900060F0882773957F701BD0731731F4772732
:1000A00017D00BB110E401270BB9089533953F70B9
:1000B00008953A953F700895F0E0E2E0E30FF61FEF
:1000C0002491422F4F7348B9289826FD289A089505
:1000D0000BB1037C172F110F110F1C73012B0BB9E0
:1000E00008950DD019990895199BFECF08D0089551
:1000F00006D01A9908951A9BFECF01D0089540E5C5
:0C0100005AEF5A95F1F74A95D9F7089587
:00000001FF
